:020000040800F2
:1000000088040020DD010008D10400089F040008D6
:10001000CD04000825020008410C00080000000083
:10002000000000000000000000000000AD06000815
:100030006103000800000000610500087507000862
:10004000F7010008F7010008F7010008F7010008B0
:10005000F7010008F7010008F7010008F7010008A0
:10006000F7010008F7010008F7010008F701000890
:10007000F7010008F7010008F7010008F701000880
:10008000F701000829020008F7010008000000003D
:10009000000000000000000000000000F701000860
:1000A000F7010008F7010008F7010008F701000850
:1000B000000000000000000000000000F701000840
:1000C000F7010008F7010008F7010008F701000830
:1000D000F70100080D0900083909000800000000B8
:1000E000F7010008F7010008000000000000000010
:1000F000000000000000000000000000F701000800
:100100000000000000000000F701000800000000EF
:100110000000000000000000F701000800000000DF
:10012000F7010008F7010008F7010008F7010008CF
:10013000F7010008000000000000000000000000BF
:1001400000000000000000000000000000000000AF
:10015000F7010008F7010008F7010008F70100089F
:10016000000000000000000000000000000000008F
:10017000000000000000000000000000000000007F
:10018000F7010008F701000800000000000000006F
:1001900000000000F701000800000000000000005F
:1001A000000000000000000000000000000000004F
:1001B000000000000000000000000000F70100083F
:1001C000F7010008F7010008DFF80CD000F018F87C
:1001D00000480047B90C0008880400200648804702
:1001E00006480047FEE7FEE7FEE7FEE7FEE7FEE71C
:1001F000FEE7FEE7FEE7FEE779070008C901000811
:10020000064C074D06E0E06840F0010394E8070063
:1002100098471034AC42F6D3FFF7DAFF100D000810
:10022000300D000800BFFEE710B51049104800F07F
:1002300065F8012818D10F490D4800F01FF840213A
:100240000D4800F08FFB002280210B4800F024FCB9
:100250000021074800F046F80449054800F028F856
:100260000121034800F03EF810BD0000008020206E
:10027000A060024000003D20004400400246094BBF
:100280009A4201D2084801E00648103801F00053B4
:100290001BB1064B0B40C36002E0044B0B40836074
:1002A0007047000010640240006002407D0F7D0F27
:1002B0000246094B9A4201D2084801E0064810382C
:1002C00001F000531BB1064B0B40C36002E0044B2E
:1002D0000B408360704700001064024000600240E1
:1002E0007D0F7D0F21B1026842F00102026003E040
:1002F000026822F0010202607047000070B50246F9
:10030000002000240025124EB24201D2114B01E020
:100310000F4B103B104E0E4036B11E2606EAD1247C
:10032000166806EA040502E0566906F0800501F049
:1003300000560EB15C6800E01C68084E344004EAC8
:10034000010616B10DB1012000E0002070BD0000D3
:1003500010640240006002403C0F3C0F7D0F7D0F97
:10036000704710B5044603E04FF47A7000F006F8C9
:10037000201EA4F10104F7D110BD00000146114A6E
:1003800012884A434FF0E0235A6100229A611A46CC
:10039000126942F001021A6100BF4FF0E0221069B9
:1003A00000F001021AB100F48032002AF5D04FF0BB
:1003B000E022126922F001024FF0E0231A610022CC
:1003C0009A61704724000020F0B50A4600210023FE
:1003D000002400BF3DE0012505FA01F3156805EA98
:1003E00003049C4234D105684F000326BE40B54348
:1003F000056015794E00B5400668354305601579EE
:10040000012D02D01579022D16D185684F000326E3
:10041000BE40B543856055794E00B540866835438A
:100420008560456801268E40B543456045689679EC
:100430008E40B6B235434560C5684F000326BE40C6
:10044000B543C560D5794E00B540C6683543C56033
:10045000491C1029BFD3F0BDF0B5002300244D077F
:10046000ED0E02FA05F3CE1000F1200555F82650E6
:100470004E07F70E0F26BE40B543CF1000F1200601
:1004800046F82750CE1000F1200555F8265045EAD1
:100490000304CE1000F1200545F82640F0BD00BF52
:1004A000FEE700001CB50121084600F05BF82020A3
:1004B000009001208DF8040002208DF805006946A7
:1004C0000148FFF781FF1CBD0000024000BFFEE7AE
:1004D0007047000070B5002100230F22C4781CB3C0
:1004E000174C246804F4E064C4F5E064C4F3072105
:1004F000C1F10404E3B20A4144789C40E1B284783B
:10050000144021430C07210E0E4C057861550478E8
:1005100004F01F050124AC4005786D11AD0005F114
:10052000E025C5F8004109E0047804F01F05012426
:10053000AC40054D0678761145F8264070BD0000A8
:100540000CED00E000E400E080E100E0024901433E
:10055000024A1160704700000000FA050CED00E04F
:100560007047000029B1064A12680243044B1A6022
:1005700004E0034A12688243014B1A60704700008E
:100580003038024029B1064A12680243044B1A600F
:1005900004E0034A12688243014B1A60704700006E
:1005A0004038024029B1064A12680243044B1A60DF
:1005B00004E0034A12688243014B1A60704700004E
:1005C00044380240F0B50021002200240225002614
:1005D0000223324F3F6807F00C0121B1042905D0F6
:1005E000082937D105E02E4F076036E02D4F076010
:1005F00033E02A4F3F1F3F68C7F38056274F3F1F06
:100600003F6807F03F036EB1264FB7FBF3F7DFF803
:100610008CC0ACF1040CDCF800C0CCF3881C07FBE8
:100620000CF40CE01E4FB7FBF3F7DFF870C0ACF131
:10063000040CDCF800C0CCF3881C07FB0CF4174F4B
:100640003F1F3F68C7F301477F1C7D00B4FBF5F7F0
:10065000076002E0124F076000BF00BF0F4F3F6806
:1006600007F0F0010909104F7A5C0768D74047602E
:100670000A4F3F6807F4E051890A0B4F7A5C4768DC
:10068000D7408760054F3F6807F46041490B064F2C
:100690007A5C4768D740C760F0BD00000838024068
:1006A0000024F40040787D01140000207047000011
:1006B0002248006840F080502049086020480068C7
:1006C00040F440401E4908601C48383800681B4907
:1006D000383908600846006808600846006840F439
:1006E000805008601748091F0860081F006840F024
:1006F0008070091F086000BF10484038006800F093
:1007000000700028F8D040F202700F4908600B48D2
:100710003838006820F00300084938390860084676
:10072000006840F00200086000BF044838380068E4
:1007300000F00C000828F8D1704700004038024053
:100740000070004010640107003C0240042808D1FA
:100750004FF0E021096941F004014FF0E0221161FE
:1007600007E04FF0E021096921F004014FF0E02299
:10077000116170477047000010B51548006840F4DB
:100780007000134908601348006840F001001149E7
:10079000086000200F49083108600E4800680E49C3
:1007A00008400C4908600D48091D0860081F0068D2
:1007B00020F48020091F0860002006490C310860E1
:1007C000FFF776FF4FF0006001498039086010BDE7
:1007D00088ED00E000380240FFFFF6FE10300024F4
:1007E00010B50420FFF7B2FF074800680749B0FBC7
:1007F000F1F007490880084600884FF47A714843B1
:100800000449086010BD00000000002040420F00B5
:10081000240000202800002000B589B02A482B4978
:1008200008604FF4E1304860294888604FF4C060A8
:10083000C860012008611020486125208DF81C0047
:1008400002208DF81D0001208DF81E0040F2255079
:10085000ADF820001F48204908604FF4E13048609F
:100860001B4888600C20C860012008614004486172
:1008700026208DF8140001208DF815008DF8160043
:1008800040F22550ADF8180005980290BDF8180008
:10089000ADF80C00D1E90401CDE900010E480FC804
:1008A00000F076F807980290BDF82000ADF80C0033
:1008B0000649D1E90401CDE9000104480FC800F060
:1008C00067F809B000BD0000001001403C000020A6
:1008D000000002400044004054000020F8B50646E5
:1008E0000C4615464FF4A060FFF730FEF0B28DF8CD
:1008F00000008DF801408DF8025001208DF80300B2
:100900006846FFF7E7FDF8BD7047000010B540F2FC
:100910002551054800F0D6F828B10448044908607C
:1009200004480968884710BD001001400909000803
:100930002C0000203C00002010B540F22551054855
:1009400000F0C0F828B10448044908600448096868
:10095000884710BD0044004009090008300000200D
:100960005400002001F40072B2F5007F00D100BFF6
:10097000CA430280704721B1828942F400528281C9
:1009800004E082894DF6FF731A40828170470000AF
:100990000FB470B586B00D9885B201210E98FFF79F
:1009A000E1FD3A490A98884204D101210F98FFF7E6
:1009B000F9FD0BE036490A98884203D035490A9878
:1009C000884203D101210F98FFF7DCFD2F490A98D7
:1009D000884207D02E490A98884203D02D490A98A8
:1009E000884200D10726002410E045FA04F000F008
:1009F000010020B1324621460C98FFF72DFD601C06
:100A000045FA00F000B903E0601CC4B2102CECDB26
:100A100000BF049502208DF814008DF81500002009
:100A20008DF8160001208DF8170004A90C98FFF727
:100A3000CBFC0B9800900020ADF80400ADF8060048
:100A4000ADF80800ADF80C000C20ADF80A006946BE
:100A50000A9800F087F89DF842209DF841109DF912
:100A60004000FFF73BFFBDF8441001220A9800F058
:100A700053F801210A98FFF77EFF40210A98FFF7FB
:100A800071FF06B070BC5DF814FB0000001001405F
:100A900000440040004800401AB1838A0B4383821F
:100AA00002E0838A8B438382704702460020B1F5BF
:100AB000007F00D100BF13880B400BB1012000E084
:100AC0000020704770B50246002400230025002056
:100AD00040F66A16B14200D100BFC1F3421501F0E1
:100AE0001F03012606FA03F3012D02D19689334034
:100AF00006E0022D02D1168A334001E0968A334087
:100B00000C12012606FA04F41688344013B10CB115
:100B1000012000E0002070BDF0B50346002400264F
:100B20000025002040F66A17B94200D100BF1846E0
:100B3000C1F3421401F01F06012707FA06F5012C44
:100B400001D10C3004E0022C01D1103000E014304F
:100B50001AB107682F43076002E00768AF430760D8
:100B6000F0BD00002DE9FF4705460E460024A146D2
:100B700000BFA046B08900B100BF2C8A24F44054C5
:100B8000F08804432C82AC8941F20C608443B08825
:100B900031890843718908430443AC81AC8A24F449
:100BA0004074B0890443AC826846FFF70BFD2048CF
:100BB000854202D01F48854202D1DDF80C9001E049
:100BC000DDF80890A88900F4004040B109EBC900A5
:100BD00000EB091031684900B0FBF1F707E009EBC1
:100BE000C90000EB091031688900B0FBF1F76420FF
:100BF000B7FBF0F004012009642101FB1078A889FB
:100C000000F4004040B1322000EBC800B0FBF1F02E
:100C100000F00700044308E0322000EB08106421D4
:100C2000B0FBF1F000F00F0004432C81BDE8FF871A
:100C30000010014000140140C1F308028280704797
:100C400000BFFEE7014A024900F013B8950C000806
:100C50003800002002E008C8121F08C1002AFAD19B
:100C600070477047002001E001C1121F002AFBD12C
:100C700070472DE9F04116460F460446002503E073
:100C80003946B047641C6D1C20780028F8D12846EE
:100C9000BDE8F08170B504460D46E1B20548FFF7A6
:100CA000CBFF00BF80210348FFF7FFFE0028F9D0EB
:100CB000204670BD00440040FFF792FDFFF7F2FBB5
:100CC000FFF7AAFD4FF4FA70FFF74BFB0AA0FFF7FE
:100CD000B9FF0FE000200C4908604FF4FA70FFF7ED
:100CE00040FB4FF0FF300949C1F894024FF4FA700D
:100CF000FFF737FBEEE7000068656C6C6F2C776FD1
:100D0000726C640D0A0000009402404200004042F0
:100D1000300D0008000000203C000000540C0008CA
:100D20006C0D00083C0000204C040000640C00081E
:100D300000E1F505000000000000000001020304CE
:100D40000607080900000000010203040102030471
:100D50000607080900000000000000000000000075
:0C0D600000000000000000000000000087
:04000005080001C925
:00000001FF
