:020000040800F2
:100000008806002069020008D9030008D10300080F
:10001000D50300082303000875060008000000004F
:100020000000000000000000000000004D05000876
:100030002703000800000000DB030008ED050008AE
:10004000830200088302000883020008830200087C
:10005000830200088302000883020008830200086C
:10006000830200088302000883020008830200085C
:10007000830200088302000883020008830200084C
:1000800083020008830200088302000800000000C9
:1000900000000000000000000000000083020008D3
:1000A000830200088302000883020008830200081C
:1000B00000000000000000000000000083020008B3
:1000C00083020008830200088302000883020008FC
:1000D0008302000883020008830200080000000079
:1000E00083020008830200080000000000000000F6
:1000F0000000000000000000000000008302000873
:100100000000000000000000830200080000000062
:100110000000000000000000830200080000000052
:10012000830200088302000883020008830200089B
:100130008302000800000000000000000000000032
:1001400000000000000000000000000000000000AF
:10015000830200088302000883020008830200086B
:10016000000000000000000000000000000000008F
:10017000000000000000000000000000000000007F
:100180008302000883020008000000000000000055
:1001900000000000830200080000000000000000D2
:1001A000000000000000000000000000000000004F
:1001B00000000000000000000000000083020008B2
:1001C000830200088302000800F002F800F03CF807
:1001D0000AA090E8000C82448344AAF10107DA45A2
:1001E00001D100F031F8AFF2090EBAE80F0013F0B8
:1001F000010F18BFFB1A43F0010318476C050000FC
:100200008C050000103A24BF78C878C1FAD852078C
:1002100024BF30C830C144BF04680C607047000080
:100220000023002400250026103A28BF78C1FBD8FF
:10023000520728BF30C148BF0B6070471FB500F0A0
:100240008DFA1FBD10B510BD00F031F81146FFF753
:10025000F5FF00F011FA00F04FF803B4FFF7F2FFDA
:1002600003BC00F057F800000948804709480047E0
:10027000FEE7FEE7FEE7FEE7FEE7FEE7FEE7FEE756
:10028000FEE7FEE704480549054A064B70470000B3
:10029000F5050008C9010008880000208806002034
:1002A000880200208802002070477047704775461A
:1002B00000F02CF8AE4605006946534620F00700D2
:1002C000854618B020B5FFF7DDFFBDE820404FF0B0
:1002D00000064FF000074FF000084FF0000B21F030
:1002E0000701AC46ACE8C009ACE8C009ACE8C009FD
:1002F000ACE8C0098D46704710B50446AFF30080E6
:100300002046BDE81040FFF7A8BF00000048704736
:100310002400002001491820ABBEFEE726000200A1
:10032000704700BFFEE7704701B5044900980860B8
:1003300000BF024800680028FBD108BD1000002063
:10034000F0B50A4600210023002400BF3DE001254E
:1003500005FA01F3156805EA03049C4234D10568E7
:100360004F000326BE40B543056015794E00B540E9
:100370000668354305601579012D02D01579022DE7
:1003800016D185684F000326BE40B5438560557978
:100390004E00B540866835438560456801268E402D
:1003A000B5434560456896798E40B6B235434560A1
:1003B000C5684F000326BE40B543C560D5794E00E1
:1003C000B540C6683543C560491C1029BFD3F0BD90
:1003D00000BFFEE700BFFEE77047704729B1064A3D
:1003E00012680243044B1A6004E0034A1268824315
:1003F000014B1A607047000030380240F0B5002110
:1004000000220024022500260223324F3F6807F015
:100410000C0121B1042905D0082937D105E02E4F60
:10042000076036E02D4F076033E02A4F3F1F3F68DB
:10043000C7F38056274F3F1F3F6807F03F036EB159
:10044000264FB7FBF3F7DFF88CC0ACF1040CDCF8F7
:1004500000C0CCF3881C07FB0CF40CE01E4FB7FB6C
:10046000F3F7DFF870C0ACF1040CDCF800C0CCF39B
:10047000881C07FB0CF4174F3F1F3F68C7F3014769
:100480007F1C7D00B4FBF5F7076002E0124F0760A8
:1004900000BF00BF0F4F3F6807F0F0010909104F80
:1004A0007A5C0768D74047600A4F3F6807F4E0511D
:1004B000890A0B4F7A5C4768D7408760054F3F68D1
:1004C00007F46041490B064F7A5C4768D740C76024
:1004D000F0BD0000083802400024F40040787D019F
:1004E00000000020014908607047000020014742D9
:1004F00010B504460B4600220648026822F0EC6262
:1005000044EA03000243034802600120FFF7EAFFC8
:1005100010BD000008380240014908607047000023
:100520002401474210B504460B46002206480268E3
:1005300022F0784244EA03000243034802600120AB
:10054000FFF7EAFF10BD00000838024070470000C6
:100550002248006840F08050204908602048006828
:1005600040F440401E4908601C48383800681B4968
:10057000383908600846006808600846006840F49A
:10058000805008601748091F0860081F006840F085
:100590008070091F086000BF10484038006800F0F4
:1005A00000700028F8D040F202700F4908600B4834
:1005B0003838006820F003000849383908600846D8
:1005C000006840F00200086000BF04483838006846
:1005D00000F00C000828F8D17047000040380240B5
:1005E0000070004010640107003C024010B500F0AC
:1005F00035F810BD10B51548006840F47000134977
:1006000008601348006840F00100114908600020AC
:100610000F49083108600E4800680E4908400C492F
:1006200008600D48091D0860081F006820F480203C
:10063000091F0860002006490C310860FFF788FF99
:100640004FF0006001498039086010BD88ED00E07E
:1006500000380240FFFFF6FE103000240448006816
:1006600020B103480068401E01490860704700003F
:100670001000002000BFFEE71CB53348FFF7BEFEA8
:10068000314840686422B0FBF2F1481EB0F1807F2F
:1006900000D31BE0481E4FF0E022506150170F229C
:1006A000002807DA13071D0E284B00F00F04241F43
:1006B0001D5503E013071C0E254B1C5400BF0020E2
:1006C0004FF0E02290610720106100BF0520FFF786
:1006D0002BFE01210846FFF781FE4FF48070009049
:1006E00003208DF8050002208DF8040000208DF80D
:1006F000060001208DF8070069461648FFF720FE26
:1007000000214FF48000FFF7F3FE01210420FFF7E2
:1007100065FE4FF40070009003208DF80500022064
:100720008DF8040000208DF8060001208DF80700E8
:1007300069460948FFF704FE4FF040510020FFF7DB
:10074000F1FE00BFFEE700001400002018ED00E0FD
:1007500000E400E000000240000802404FF040705A
:10076000E1EE100A70470000880700080000002032
:1007700014000000040200089C0700081400002078
:1007800074060000200200080000000001020304BB
:0C07900001020304060708090000000035
:04000005080001C925
:00000001FF
