:020000040800F2
:1000000070060020CD010008D90A0008D10A0008B6
:10001000D50A0008D3020008D10B00080000000038
:10002000000000000000000000000000050B0008B8
:10003000D702000800000000DB0A0008070B0008D8
:10004000E7010008E7010008E7010008E7010008F0
:10005000E7010008E7010008E7010008E7010008E0
:10006000E7010008E7010008E7010008E7010008D0
:10007000E7010008E7010008E7010008E7010008C0
:10008000E7010008E7010008E7010008E7010008B0
:10009000E7010008E7010008E7010008E7010008A0
:1000A000E7010008E7010008E7010008E701000890
:1000B000E7010008E7010008E7010008E701000880
:1000C000E7010008E7010008E7010008E701000870
:1000D000E7010008E7010008E7010008E701000860
:1000E000E7010008E7010008E7010008E701000850
:1000F000E7010008E7010008E7010008E701000840
:10010000E7010008E7010008E7010008E70100082F
:10011000E7010008E7010008E7010008E70100081F
:10012000E7010008E7010008E7010008E70100080F
:1001300000F002F800F03AF80AA090E8000C8244BF
:100140008344AAF10107DA4501D100F02FF8AFF29C
:10015000090EBAE80F0013F0010F18BFFB1A43F0A5
:1001600001031847CC0A0000EC0A0000103A24BF33
:1001700078C878C1FAD8520724BF30C830C144BF0C
:1001800004680C607047000000230024002500264E
:10019000103A28BF78C1FBD8520728BF30C148BFEA
:1001A0000B6070471FB51FBD10B510BD00F058F8AB
:1001B0001146FFF7F7FF00F029FD00F076F803B4D1
:1001C000FFF7F2FF03BC00F07DF80000094880470C
:1001D00009480047FEE7FEE7FEE7FEE7FEE7FEE729
:1001E000FEE7FEE7FEE7FEE704480549054A064B41
:1001F00070470000790B00083101000870000020F2
:100200007006002070020020700200204FF00002F3
:1002100000B5134694469646203922BFA0E80C50FC
:10022000A0E80C50B1F12001BFF4F7AF090728BFD7
:10023000A0E80C5048BF0CC05DF804EB890028BF53
:1002400040F8042B08BF704748BF20F8022B11F07C
:10025000804F18BF00F8012B7047704770477047F8
:10026000754600F02BF8AE4605006946534620F06F
:100270000700854618B020B5FFF7B6FFBDE820405F
:100280004FF000064FF000074FF000084FF0000B52
:1002900021F00701AC46ACE8C009ACE8C009ACE805
:1002A000C009ACE8C0098D46704710B50446AFF3ED
:1002B00000802046BDE81040FFF781BF004870472E
:1002C0001000002001491820ABBEFEE72600020006
:1002D000704700BFFEE770470148006870470000A4
:1002E00004000020034800680349097808440149D4
:1002F00008607047040000200C00002010B508487A
:10030000006840F0100006490860032000F070F813
:100310000F2000F007F800F02BF8002010BD0000BF
:100320000020024070B504460E4800784FF47A7100
:10033000B1FBF0F00C490968B1FBF0F5284600F07C
:10034000ADFB08B1012070BD102C07D20022214660
:10035000501E00F00EF80548046001E00120F2E7AD
:100360000020F0E70C000020000000200800002022
:1003700070472DE9F05F80460D461646002700F0D5
:1003800029FC074639462A46334601F00700C0F1EA
:10039000070ABAF1040F02D94FF0040A01E0C0F1D4
:1003A000070AD14600F1040ABAF1070F02D24FF052
:1003B000000A01E0A0F1030AD4464FF0010A0AFA4C
:1003C00009FAAAF1010A0AEA020A0AFA0CFA4FF03B
:1003D000010B0BFA0CFBABF1010B0BEA030B4AEA26
:1003E0000B042146404600F0FDFBBDE8F09F0000F5
:1003F00000BF00F00702064B19684FF6FF031940D3
:10040000044B0B4343EA0221014B196000BF7047C4
:100410000CED00E00000FA0570B504460D460CB97D
:10042000012070BD5A48006800F00700A8420ED2B3
:100430005748006820F007002843554908600846DF
:10044000006800F00700A84201D00120E9E7207809
:1004500000F0020002281DD1207800F004000428DA
:1004600005D14C48406840F4E0604A494860207833
:1004700000F00800082805D14648406840F4605064
:10048000444948604348406820F0F000A1680843B0
:1004900040494860207800F0010078B36068012886
:1004A00006D13C48006800F4003090B90120B8E75C
:1004B0006068022806D13748006800F0007040B933
:1004C0000120AEE73348006800F0020008B90120BF
:1004D000A7E73048406820F00300616808432D49D1
:1004E0004860FFF7F9FE064609E0FFF7F5FE801BBE
:1004F00041F28831884202D9032092E707E025487B
:10050000406800F00C006168B0EB810FEDD120482D
:10051000006800F00700A8420ED91D48006820F0CE
:10052000070028431A4908600846006800F00700E1
:10053000A84201D0012074E7207800F004000428CC
:1005400007D11448406820F4E060E168084311498D
:100550004860207800F00800082808D10D4840685D
:1005600020F46050216940EAC1000A49486000F067
:1005700019F808494968C1F30311074A515CC8409A
:100580000649086006480068FFF7CCFE002048E7EF
:100590000020024000100240180C0008000000205B
:1005A00008000020F0B585B00FF26C0C9CE8E0105C
:1005B00001A8A0E8E0101CA52D68009500210022EC
:1005C000002300240020194D696801F00C05F5B1E5
:1005D000042D02D0082D19D101E0154819E001AD14
:1005E000C1F38346AC5D01F4803555B10F4D6D68A4
:1005F000C5F340451DF805200D4D6543B5FBF2F3ED
:1006000002E00C4D04FB05F3184602E000BF084869
:1006100000BF00BF05B0F0BD0203040506070809CE
:100620000A0B0C0D0E0F101001020000001002400A
:1006300000127A0000093D00F8B504460CB901200B
:10064000F8BD207800F00100002878D0F848406814
:1006500000F00C0004280CD0F548406800F00C00B5
:10066000082811D1F248406800F48030B0F5803F8E
:100670000AD1EF48006800F4003000285FD06068BD
:1006800000285CD10120DBE700BF6068B0F5803F47
:1006900006D1E748006840F48030E549086028E06A
:1006A000606858B9E248006820F48030E04908608A
:1006B0000846006820F4802008601AE06068B0F501
:1006C000A02F0BD1DA48006840F48020D849086098
:1006D0000846006840F4803008600AE0D4480068AA
:1006E00020F48030D24908600846006820F4802059
:1006F000086000BF606888B1FFF7EEFD054606E0C0
:10070000FFF7EAFD401B642801D9032098E7C84899
:10071000006800F400300028F2D010E0FFF7DCFDA4
:10072000054606E0FFF7D8FD401B642801D90320E9
:1007300086E7BF48006800F400300028F2D1207836
:1007400000F00200022857D1B948406800F00C00C0
:1007500050B1B748406800F00C00082818D1B448E0
:10076000406800F4803098B9B148006800F0020099
:1007700020B12069012801D0012061E7AC48006860
:1007800020F0F800616940EAC100A949086033E03F
:100790002069E8B10120A7490860FFF79DFD0546E3
:1007A00006E0FFF799FD401B022801D9032047E727
:1007B0009F48006800F002000028F2D09C480068C2
:1007C00020F0F800616940EAC1009949086013E02F
:1007D000002098490860FFF77FFD054606E0FFF717
:1007E0007BFD401B022801D9032029E790480068BF
:1007F00000F002000028F2D1207800F0080008285C
:100800002DD1A069B8B101208B490860FFF764FDC4
:10081000054606E0FFF760FD401B022801D90320D2
:100820000EE78348406A00F002000028F2D0012061
:1008300000F054F913E000207F490860FFF74CFDF9
:10084000054606E0FFF748FD401B022801D90320BA
:10085000F6E67748406A00F002000028F2D12078DE
:1008600000F00400042873D100277148C06900F02B
:10087000805070B900BF6E48C06940F080506C492C
:10088000C8610846C06900F08050009000BF00BFFA
:1008900001276A48006800F48070B0B967480068B2
:1008A00040F4807065490860FFF716FD054606E0D4
:1008B000FFF712FD401B642801D90320C0E65F4802
:1008C000006800F480700028F2D000BFE0680128C2
:1008D00006D15748006A40F001005549086227E0F8
:1008E000E06858B95248006A20F001005049086297
:1008F0000846006A20F00400086219E0E068052854
:100900000BD14B48006A40F0040049490862084690
:10091000006A40F0010008620AE04548006A20F0E1
:100920000100434908620846006A20F0040008629A
:1009300000BFE068A0B1FFF7CFFC054609E0FFF774
:10094000CBFC401B41F28831884202D9032077E674
:1009500022E03748006A00F002000028EFD012E0E1
:10096000FFF7BAFC054608E0FFF7B6FC401B41F272
:100970008831884201D9032062E62D48006A00F0E0
:1009800002000028F0D1012F05D12948C06920F0CC
:1009900080502749C86100BFE069C8B32448406857
:1009A00000F00C00082860D0E069022848D100203F
:1009B00020490866FFF790FC054606E0FFF78CFC2F
:1009C000401B022801D903203AE61948006800F0CC
:1009D00000700028F2D1206AB0F5803F07D114489A
:1009E000406820F40030A168084311494860D4E908
:1009F000080108430E49496821F4741108430C4961
:100A0000486001200B490866FFF766FC054607E0D1
:100A10003DE0FFF761FC401B022801D903200FE6EF
:100A20000348006800F000700028F2D02FE00000BA
:100A30000010024000004242800442420070004028
:100A4000002014490866FFF747FC054606E0FFF75B
:100A500043FC401B022801D90320F1E50E48006841
:100A600000F000700028F2D111E0E069012800D107
:100A7000E6E50948466806F48031206A814204D1DF
:100A800006F47011606A814201D00120D8E500208F
:100A9000D6E50000000042420010024070B5044656
:100AA0002546681EB0F1807F01D301200FE0681E4B
:100AB0004FF0E02148610F214FF0FF3000F092F835
:100AC00000204FF0E021886107200861002070BD00
:100AD00000BFFEE700BFFEE77047704708B5084952
:100AE0000968C9084FF47A72B1FBF2F141430091F1
:100AF00000BF00BF00994A1E00920029F9D108BD2D
:100B000000000020704710B5FFF7ECFB10BD00B5EA
:100B10008FB014210AA8FFF779FB28216846FFF758
:100B200075FB0220009000200190039001200490AA
:100B300010200590002002900220079000210891CB
:100B40004FF4601109916846FFF776FD08B100BFC8
:100B5000FEE70F200A9002200B9000200C900E90D0
:100B60004FF480600D9002210AA8FFF755FC08B1F0
:100B700000BFFEE70FB000BD1148006840F0010063
:100B80000F490860084640680E4908400C49486013
:100B9000084600680C490840094908600846006892
:100BA00020F4802008600846406820F4FE00486079
:100BB0004FF41F008860C8030449086070470000B4
:100BC000001002400000FFF8FFFFF6FE08ED00E015
:100BD00000BFFEE702480068C0F302207047000033
:100BE0000CED00E010B5002804DB0A07130E054ADF
:100BF000135406E00A07140E034A00F00F031B1FEC
:100C0000D45410BD00E400E018ED00E0FFF776FBDF
:100C1000FFF77DFF00BFFEE70000000000000000BE
:100C20000102030406070809000000000102030492
:100C3000500C000800000020100000006C010008AB
:100C4000600C000810000020600600008801000809
:100C50000024F4000000000010000000010000006B
:0400000508000131BD
:00000001FF
